{
  "contractName": "PhotoCopy",
  "abi": [
    {
      "constant": true,
      "inputs": [],
      "name": "taskCount",
      "outputs": [
        {
          "name": "",
          "type": "uint256"
        }
      ],
      "payable": false,
      "stateMutability": "view",
      "type": "function"
    }
  ],
  "bytecode": "0x608060405260008055348015601357600080fd5b50609e806100226000396000f3fe608060405260043610603f576000357c0100000000000000000000000000000000000000000000000000000000900463ffffffff168063b6cb58a5146044575b600080fd5b348015604f57600080fd5b506056606c565b6040518082815260200191505060405180910390f35b6000548156fea165627a7a723058207c1192758ae39dcbfa94b16bde6f9af31d2ad88edfe41f56c27ffa74415596e90029",
  "source": "pragma solidity ^0.5.0;\n\n//make sure contract name is the same as the file name\ncontract PhotoCopy {\n    //state variables in solidity are written to the blockchain to represent the state of the smart contract on the blockchain\n        //(a)\tState changes anytime the taskCount changes\n        //(b)\t~class variables in OOP\n            //(i)\tWhere the scope of the variable belongs to the entire smart contract, not a function\n    //public lets us read the value of taskCount\n    //initialize to 0\n    uint public taskCount = 0;\n}",
  "sourcePath": "/Users/bryantcabrera/Documents/Coding/General Assembly/Web Development Immersive/Hackathon/photocopy-backend/contracts/PhotoCopy.sol",
  "compiler": {
    "name": "solc",
    "version": "0.5.0+commit.1d4f565a.Emscripten.clang"
  },
  "schemaVersion": "3.0.1",
  "updatedAt": "2019-04-09T00:30:47.038Z",
  "devdoc": {
    "methods": {}
  },
  "userdoc": {
    "methods": {}
  }
}